:100000000C9435010C9466010C9466010C94660105
:100010000C9466010C9466010C9466010C946601C4
:100020000C9466010C9466010C9466010C946601B4
:100030000C9466010C9466010C9466010C946601A4
:100040000C9466010C9466010C9466010C94660194
:100050000C9466010C9423050C9466010C947904AD
:100060000C9466010C94ED040C94C3040C9466018A
:100070000C9466010C9466010C9466010C94660164
:100080000C9466010C9466010C9466010C94660154
:100090000C9466010C9466010C9466010C94660144
:1000A0000C9466010C9466010C9466010C94660134
:1000B0000C9466010C9466010C9466010C94660124
:1000C0000C9466010C9466010C9466010C94660114
:1000D0000C9466010C9466010C9466010C94660104
:1000E0000C9466010C941F030C94D0010C94D40161
:1000F0000C9427020C94AB010C94DE010C94E201E9
:100100000C94B5010C94CA010C94AD050C94F0014B
:100110000C94C6010C94E6010C94B9010C94C00136
:100120000C9418020C9449020C9481020C94D8018E
:100130000C94BD010C94CE020C94EC010C943B0287
:100140000C94B1010C94EB01000021002400270065
:100150002A002D00300033000101000004010701D6
:100160000A0100002200250028002B002E0031008B
:10017000340002010000050108010B01000020000D
:100180002300260029002C002F003200000100006F
:10019000030106010901050505050705080808080A
:1001A000020202020A0A080804040404010101010F
:1001B000010101010303030303030303040707070A
:1001C0000C0C0C0C0C0C0C0C0202020206060606AF
:1001D000060606060B0B0B0B0B0B0B0B010210207C
:1001E000200808102040102040800201020108046D
:1001F0000201010204081020408080402010080401
:100200000201800402018040201008040201080459
:10021000020101020408102040800102040810209D
:10022000408000000A0B02090C0D0E0807030401B0
:1002300000000000000000000000000000000000BE
:10024000000000000000000000000000000012118B
:10025000100000000000000000000000000000008E
:100260000000000000000000AD0511241FBECFEF0C
:10027000D1E2DEBFCDBF00E00CBF12E0A0E0B2E0F3
:10028000E0E5F3E100E00BBF02C007900D92AC3453
:10029000B107D9F722E0ACE4B2E001C01D92AD3F56
:1002A000B207E1F711E0C5E3D1E000E006C0219715
:1002B0000109802FFE010E949E09C433D10780E00E
:1002C0000807A9F70E94DA050C94A6090C9400000F
:1002D0003FB7F89480915C0290915D02A0915E021C
:1002E000B0915F0226B5A89B05C02F3F19F001967B
:1002F000A11DB11D3FBFBA2FA92F982F8827BC0180
:10030000CD01620F711D811D911D42E0660F771FA7
:10031000881F991F4A95D1F708958150823108F0BE
:100320005AC0E82FF0E08827E756FE4F8F4F0C9415
:100330009E09B901BD01AB01B101B501EB01C001DD
:10034000C601CA01D001D401D801DE01E201EB01EE
:10035000E601EC01F001809180008F7780938000AE
:100360000895809180008F7DF9CF80918000877FF4
:10037000F5CF84B58F7784BD089584B58F7DFBCF8D
:100380008091B0008F778093B00008958091B00085
:100390008F7DF9CF809190008F77809390000895A2
:1003A000809190008F7DF9CF80919000877FF5CF6D
:1003B0008091A0008F778093A00008958091A00085
:1003C0008F7DF9CF8091A000877FF5CF80912001AC
:1003D0008F77809320010895809120018F7DF9CF40
:1003E00080912001877FF5CFCF93DF93E4E2F2E0A5
:1003F0008491EEEDF1E0D491E8E9F1E0C491CC23F1
:10040000A1F081110E948D01EC2FF0E0EE0FFF1F93
:10041000E458FE4FA591B491EC91ED2381E090E07A
:1004200009F480E0DF91CF91089580E090E0FACF69
:10043000FC01538D448D252F30E0842F90E0821BEA
:10044000930B541710F0CF96089501970895FC016F
:10045000918D828D981761F0A28DAE0FBF2FB11DC7
:100460005D968C91928D9F5F9F73928F90E008951F
:100470008FEF9FEF0895FC01918D828D981731F0D9
:10048000828DE80FF11D858D90E008958FEF9FEF2D
:100490000895FC01918D228D892F90E0805C9F4F03
:1004A000821B91098F739927089580E692E00E943C
:1004B000490221E0892B09F420E0822F0895FC01F4
:1004C000A48DA80FB92FB11DA35ABF4F2C91848DB5
:1004D00090E001968F739927848FA689B7892C9312
:1004E000A089B1898C91837080648C93938D848D65
:1004F000981306C00288F389E02D80818F7D808368
:100500000895EF92FF920F931F93CF93DF93EC0127
:1005100081E0888F9B8D8C8D98131AC0E889F989AA
:10052000808185FF15C09FB7F894EE89FF896083AD
:10053000E889F98980818370806480839FBF81E02E
:1005400090E0DF91CF911F910F91FF90EF90089570
:10055000F62E0B8D10E00F5F1F4F0F731127E02E4B
:100560008C8D8E110CC00FB607FCFACFE889F98983
:10057000808185FFF5CFCE010E945F02F1CFEB8D28
:10058000EC0FFD2FF11DE35AFF4FF0829FB7F89457
:100590000B8FEA89FB8980818062CFCFCF93DF9375
:1005A000EC01888D8823B9F0AA89BB89E889F9898B
:1005B0008C9185FD03C0808186FD0DC00FB607FCC0
:1005C000F7CF8C9185FFF2CF808185FFEDCFCE01F3
:1005D0000E945F02E9CFDF91CF91089580E090E023
:1005E000892B29F00E94550281110E94000080E0B1
:1005F00090E0892B49F080E090E0892B29F00E945F
:10060000000081110E94000080E090E0892B49F0F9
:1006100080E090E0892B29F00E94000081110E9467
:10062000000080E090E0892B49F080E090E0892B89
:1006300029F00E94000081110C9400000895AF92EF
:10064000BF92CF92DF92EF92FF920F931F93CF93BF
:10065000DF936C017B018B01040F151FEB015E0121
:10066000AE18BF08C017D10759F06991D601ED91B6
:10067000FC910190F081E02DC6011995892B79F745
:10068000C501DF91CF911F910F91FF90EF90DF9007
:10069000CF90BF90AF900895FC0101900020E9F742
:1006A0003197AF01481B590BBC0180E692E00C94D6
:1006B0001F038F929F92AF92BF920F931F93CF937E
:1006C000DF93CDB7DEB7A1970FB6F894DEBF0FBEAC
:1006D000CDBF19A2423008F44AE08E010F5D1F4FD2
:1006E000842E912CB12CA12CA50194010E947C098F
:1006F000E62FB901CA01EA30F4F4E05DD801EE93C7
:100700008D01232B242B252B79F790E080E0109787
:1007100019F0CD010E944C03A1960FB6F894DEBFEC
:100720000FBECDBFDF91CF911F910F91BF90AF90C2
:100730009F908F900895E95CE1CF4F925F926F9206
:100740007F928F929F92AF92BF92CF92DF92EF9261
:10075000FF920F931F93CF936B017C01742EAC011A
:100760009B010E947709882399F082E192E0CF9162
:100770001F910F91FF90EF90DF90CF90BF90AF90BF
:100780009F908F907F906F905F904F900C944C0350
:1007900046015701E894B7F82FEF3FEF4FE75FE7C7
:1007A000C501B4010E94770981110DC02FEF3FEF01
:1007B0004FE75FE7C501B4010E94AD0718161CF4AE
:1007C00086E192E0D4CF2FEF3FEF4FE75FE4C70120
:1007D000B6010E94050918161CF48AE192E0C7CF01
:1007E0002FEF3FEF4FE75FECC701B6010E94AD0767
:1007F00087FDF3CF20E030E0A901C701B6010E94D8
:10080000AD0710E000E087FF0AC06DE280E692E0ED
:100810000E9481028C01F7FAF094F7F8F094C0E09E
:1008200060E070E080E09FE37C1641F020E030E083
:1008300040E251E40E94B207CF5FF6CFA7019601D4
:100840000E9441072B013C010E9424084B015C01DE
:100850004AE00E9459037C01E00EF11ECC23C1F155
:10086000C501B4010E9453089B01AC01C301B20150
:100870000E9440074B015C016EE280E692E00E941C
:100880008102E80EF91EC15018F120E030E040E28C
:1008900051E4C501B4010E940A092B013C010E94E8
:1008A00024084B01B12CA12C4AE0C501B4010E94DF
:1008B0005903E80EF91EC501B4010E9453089B01BB
:1008C000AC01C301B2010E9440074B015C01DBCFC8
:1008D000C701CF911F910F91FF90EF90DF90CF90C4
:1008E000BF90AF909F908F907F906F905F904F9050
:1008F00008951F920F920FB60F9211242F933F93DA
:100900008F939F93AF93BF93809158029091590218
:10091000A0915A02B0915B023091570223E0230F5D
:100920002D3758F50196A11DB11D209357028093D4
:10093000580290935902A0935A02B0935B0280919F
:100940005C0290915D02A0915E02B0915F020196FF
:10095000A11DB11D80935C0290935D02A0935E0285
:10096000B0935F02BF91AF919F918F913F912F9173
:100970000F900FBE0F901F90189526E8230F029638
:10098000A11DB11DD2CF1F920F920FB60F9211244D
:100990000BB60F922F933F934F935F936F937F9379
:1009A0008F939F93AF93BF93EF93FF9380E692E073
:1009B0000E945F02FF91EF91BF91AF919F918F9144
:1009C0007F916F915F914F913F912F910F900BBE4F
:1009D0000F900FBE0F901F9018951F920F920FB699
:1009E0000F9211240BB60F922F938F939F93EF9337
:1009F000FF93E0917002F09171028081E0917602A4
:100A0000F091770282FD1DC09081809179028F5F05
:100A10008F7320917A02821741F0E0917902F0E021
:100A2000E05AFD4F958F80937902FF91EF919F914E
:100A30008F912F910F900BBE0F900FBE0F901F90B4
:100A400018958081F2CF1F920F920FB60F9211244A
:100A50000BB60F92CF92DF92EF92FF922F933F93BC
:100A60004F935F936F937F938F939F93AF93BF93B6
:100A7000EF93FF930E94F4019091500298132AC0C3
:100A800080914C0290914D02A0914E02B0914F0284
:100A90000196A11DB11D80934C0290934D02A0932D
:100AA0004E02B0934F02FF91EF91BF91AF919F9192
:100AB0008F917F916F915F914F913F912F91FF9017
:100AC000EF90DF90CF900F900BBE0F900FBE0F9066
:100AD0001F901895813051F42091510230915202AB
:100AE0002F5F3F4F30935202209351028093500268
:100AF00080E090E0AAE7B4E480935302909354021C
:100B0000A0935502B093560260914C0270914D0231
:100B100080914E0290914F02C0905302D0905402A7
:100B2000E0905502F09056020E9453089B01AC01E0
:100B3000C701B6010E94B20760935302709354023A
:100B4000809355029093560210924C0210924D02DF
:100B500010924E0210924F02A6CFE0E6F2E013820E
:100B6000128288EE93E0A0E0B0E084839583A683B0
:100B7000B78384E092E09183808385EC90E0958751
:100B8000848784EC90E09787868780EC90E0918B57
:100B9000808B81EC90E0938B828B82EC90E0958B44
:100BA000848B86EC90E0978B868B118E128E138E41
:100BB000148E0895789484B5826084BD84B5816074
:100BC00084BD85B5826085BD85B5816085BD809118
:100BD0006E00816080936E00109281008091810090
:100BE0008260809381008091810081608093810088
:100BF000809180008160809380008091B10084604A
:100C00008093B1008091B00081608093B0008091AA
:100C10009100826080939100809191008160809327
:100C20009100809190008160809390008091A1005C
:100C300082608093A1008091A10081608093A100D7
:100C40008091A00081608093A0008091210182604A
:100C50008093210180912101816080932101809105
:100C6000200181608093200180917A0084608093CC
:100C70007A0080917A00826080937A0080917A0075
:100C8000816080937A0080917A00806880937A00F6
:100C90001092C100E0917002F091710282E08083B5
:100CA000E0916C02F0916D021082E0916E02F09181
:100CB0006F028FEC808310927802E0917402F091C1
:100CC000750286E08083E0917202F0917302808168
:100CD00080618083E0917202F0917302808188606C
:100CE0008083E0917202F09173028081806880833A
:100CF000E0917202F091730280818F7D80838EE19A
:100D000092E00E944C034EED51E0FA01649128E913
:100D100031E0F90184918823C1F090E0880F991F98
:100D2000FC01E85BFE4FA591B491FC01EE59FE4F2A
:100D3000C591D4917FB7F8949C91862F8095982384
:100D40009C939881892388837FBFE4E2F2E08491B9
:100D5000FA01D491F901C491CC2389F081110E9448
:100D60008D01EC2FF0E0EE0FFF1FEE59FE4FA59125
:100D7000B4918FB7F8944C914D2B4C938FBF0E9438
:100D8000F401809350028FEA87BD80916E008260EB
:100D900080936E0080E392E00E944C0360915302C6
:100DA00070915402809155029091560242E00E9447
:100DB0009D0387E392E00E944C038AE392E00E9445
:100DC0004C03609151027091520290E080E04AE041
:100DD0000E94590387E392E00E944C036091510204
:100DE0007091520290E080E00E94530820E030E0D1
:100DF00040EF50E40E94B20720E030E040E752E4C8
:100E00000E94B20742E00E949D0383E492E00E94A8
:100E10004C0387E392E00E944C031092520210921E
:100E200051021092530210925402109255021092E5
:100E300056020E9468014B015C0184E6C82ED12C49
:100E4000E12CF12C0E946801681979098A099B0933
:100E5000683E734081059105A8F3F1E0CF1AD108EF
:100E6000E108F10828EE820E23E0921EA11CB11CBD
:100E7000C114D104E104F10429F70E94EE028ACFE3
:100E80005058BB27AA270E9458070C94CB080E94F1
:100E9000BD0838F00E94C40820F039F49F3F19F4CF
:100EA00026F40C94BA080EF4E095E7FB0C94B40811
:100EB000E92F0E94DC0858F3BA176207730784070A
:100EC000950720F079F4A6F50C94FE080EF4E09551
:100ED0000B2EBA2FA02D0B01B90190010C01CA01F4
:100EE000A0011124FF27591B99F0593F50F4503E9F
:100EF00068F11A16F040A22F232F342F4427585F91
:100F0000F3CF469537952795A795F0405395C9F7A8
:100F10007EF41F16BA0B620B730B840BBAF0915060
:100F2000A1F0FF0FBB1F661F771F881FC2F70EC0FF
:100F3000BA0F621F731F841F48F4879577956795D2
:100F4000B795F7959E3F08F0B0CF9395880F08F0BE
:100F50009927EE0F9795879508950E94900808F4B9
:100F600081E008950E94C6070C94CB080E94C40833
:100F700058F00E94BD0840F029F45F3F29F00C941E
:100F8000B40851110C94FF080C94BA080E94DC08B4
:100F900068F39923B1F3552391F3951B550BBB27A8
:100FA000AA2762177307840738F09F5F5F4F220FED
:100FB000331F441FAA1FA9F335D00E2E3AF0E0E8E4
:100FC00032D091505040E695001CCAF72BD0FE2F2E
:100FD00029D0660F771F881FBB1F261737074807C2
:100FE000AB07B0E809F0BB0B802DBF01FF2793587A
:100FF0005F4F3AF09E3F510578F00C94B4080C9482
:10100000FF085F3FE4F3983ED4F3869577956795A4
:10101000B795F7959F5FC9F7880F911D96958795AE
:1010200097F90895E1E0660F771F881FBB1F6217CD
:1010300073078407BA0720F0621B730B840BBA0B8B
:10104000EE1F88F7E09508950E94E40888F09F5706
:1010500098F0B92F9927B751B0F0E1F0660F771FDC
:10106000881F991F1AF0BA95C9F714C0B13091F0D2
:101070000E94FE08B1E008950C94FE08672F782FB7
:101080008827B85F39F0B93FCCF386957795679597
:10109000B395D9F73EF490958095709561957F4F03
:1010A0008F4F9F4F0895E89409C097FB3EF49095A9
:1010B0008095709561957F4F8F4F9F4F9923A9F031
:1010C000F92F96E9BB279395F695879577956795C0
:1010D000B795F111F8CFFAF4BB0F11F460FF1BC004
:1010E0006F5F7F4F8F4F9F4F16C0882311F096E997
:1010F00011C0772321F09EE8872F762F05C0662345
:1011000071F096E8862F70E060E02AF09A95660FFD
:10111000771F881FDAF7880F9695879597F90895B6
:10112000990F0008550FAA0BE0E8FEEF16161706F8
:10113000E807F907C0F012161306E407F50798F060
:10114000621B730B840B950B39F40A2661F0232B79
:10115000242B252B21F408950A2609F4A140A695F5
:101160008FEF811D811D089597F99F6780E870E0DA
:1011700060E008959FEF80EC089500240A9416160D
:10118000170618060906089500240A941216130675
:10119000140605060895092E0394000C11F4882303
:1011A00052F0BB0F40F4BF2B11F460FF04C06F5F1F
:1011B0007F4F8F4F9F4F089557FD9058440F551FF5
:1011C00059F05F3F71F04795880F97FB991F61F0C9
:1011D0009F3F79F087950895121613061406551F40
:1011E000F2CF4695F1DF08C0161617061806991FAC
:1011F000F1CF86957105610508940895E894BB27A1
:1012000066277727CB0197F908950E94900808F484
:101210008FEF08950E941D090C94CB080E94BD0811
:1012200038F00E94C40820F0952311F00C94B40803
:101230000C94BA0811240C94FF080E94DC0870F387
:10124000959FC1F3950F50E0551F629FF001729F6B
:10125000BB27F00DB11D639FAA27F00DB11DAA1F7A
:10126000649F6627B00DA11D661F829F2227B00DC7
:10127000A11D621F739FB00DA11D621F839FA00D52
:10128000611D221F749F3327A00D611D231F849FA2
:10129000600D211D822F762F6A2F11249F575040F9
:1012A0009AF0F1F088234AF0EE0FFF1FBB1F661F74
:1012B000771F881F91505040A9F79E3F510580F03D
:1012C0000C94B4080C94FF085F3FE4F3983ED4F309
:1012D000869577956795B795F795E7959F5FC1F7E1
:1012E000FE2B880F911D9695879597F908950E947A
:1012F0009008880B990B0895A1E21A2EAA1BBB1B1C
:10130000FD010DC0AA1FBB1FEE1FFF1FA217B307D1
:10131000E407F50720F0A21BB30BE40BF50B661FE7
:10132000771F881F991F1A9469F7609570958095AB
:1013300090959B01AC01BD01CF010895EE0FFF1FF9
:10134000881F8BBF0790F691E02D1994F894FFCF7A
:101350000000000081021F031802CE02490227028A
:101360003B026E616E00696E66006F766600466CC9
:101370006F772073656E736F7220746573742100CC
:10138000467265713A20000D0A0050756C736573E2
:0C1390003A2000204C6974657273000064
:00000001FF
