:100000000C9429010C945A010C945A010C945A0135
:100010000C945A010C945A010C945A010C945A01F4
:100020000C945A010C945A010C945A010C945A01E4
:100030000C945A010C945A010C945A010C945A01D4
:100040000C945A010C945A010C945A010C945A01C4
:100050000C945A010C945A010C945A010C94980275
:100060000C945A010C940C030C94E2020C945A0167
:100070000C945A010C945A010C945A010C945A0194
:100080000C945A010C945A010C945A010C945A0184
:100090000C945A010C945A010C945A010C945A0174
:1000A0000C945A010C945A010C945A010C945A0164
:1000B0000C945A010C945A010C945A010C945A0154
:1000C0000C945A010C945A010C945A010C945A0144
:1000D0000C945A010C945A010C945A010C945A0134
:1000E0000C945A010C9402050C94EE040C94E80450
:1000F0000C9412020C947F010C94BF050C94A5057E
:100100000C94BB050C9406050C94B9050C94E604FC
:100110000C942E050C94B3050C948F050C949F053C
:100120000C9477050C94C5010C9408050C947B0580
:100130000C94D9040C948D010C94A9050C94EC0436
:100140000C9404050C94D3050C945C010C94CF051D
:100150000C94F0040C94E4040C9493050C94A10505
:100160000C940C060C949B050C948D050C9428059E
:100170000C94BA040C94C0040C94DC040C94F804A1
:100180000C9499050C9489050C9485050C94AF0585
:100190000C9495050C94F6040C94E0040C94300532
:1001A0000C94C6040C9418050C94B5050C942C05FD
:1001B0000C94FC040C94C2040C94DE040C94C4044F
:1001C0000C9442030C94C7050C948B050C94FE040C
:1001D0000C947D050C9420050C9497050C94100547
:1001E0000C94DF050C94AB050C94A7050C94CB057F
:1001F0000C94F4040C94D7050C9432050C94E2048E
:100200000C94C3050C949D050C941C050C94870557
:100210000C94DD050C9479050C94DB050C94A30576
:100220000C947F050C9424050C94B1050C940A05DC
:100230000C9400050C94F2040C9414050C946B01BE
:100240000C94FA040C9463020C94E3050C94EA04F5
:10025000420311241FBECFEFD1E2DEBFCDBF00E0CD
:100260000CBF12E0A0E0B2E0E0E8FCE000E00BBF71
:1002700002C007900D92A032B107D9F722E0A0E2A8
:10028000B2E001C01D92A83CB207E1F711E0C9E25B
:10029000D1E000E006C021970109802FFE010E94F5
:1002A0002206C832D10780E00807A9F70E946F0331
:1002B0000C943E060C940000FC01538D448D252FB8
:1002C00030E0842F90E0821B930B541710F0CF96F0
:1002D000089501970895FC01918D828D981761F022
:1002E000A28DAE0FBF2FB11D5D968C91928D9F5F39
:1002F0009F73928F90E008958FEF9FEF0895FC0118
:10030000918D828D981731F0828DE80FF11D858DCA
:1003100090E008958FEF9FEF0895FC01918D228D5D
:10032000892F90E0805C9F4F821B91098F739927E2
:1003300008958BE292E00E948D0121E0892B09F45F
:1003400020E0822F0895FC01A48DA80FB92FB11DC4
:10035000A35ABF4F2C91848D90E001968F739927FB
:10036000848FA689B7892C93A089B1898C918370D9
:1003700080648C93938D848D981306C00288F389D2
:10038000E02D80818F7D80830895EF92FF920F93FF
:100390001F93CF93DF93EC0181E0888F9B8D8C8D31
:1003A00098131AC0E889F989808185FF15C09FB725
:1003B000F894EE89FF896083E889F98980818370E8
:1003C000806480839FBF81E090E0DF91CF911F9197
:1003D0000F91FF90EF900895F62E0B8D10E00F5FB8
:1003E0001F4F0F731127E02E8C8D8E110CC00FB68E
:1003F00007FCFACFE889F989808185FFF5CFCE0126
:100400000E94A301F1CFEB8DEC0FFD2FF11DE35AFC
:10041000FF4FF0829FB7F8940B8FEA89FB898081A8
:100420008062CFCFCF93DF93EC01888D8823B9F022
:10043000AA89BB89E889F9898C9185FD03C08081EF
:1004400086FD0DC00FB607FCF7CF8C9185FFF2CF6C
:10045000808185FFEDCFCE010E94A301E9CFDF911E
:10046000CF91089580E090E0892B29F00E949901B6
:1004700081110E94000080E090E0892B49F080E02B
:1004800090E0892B29F00E94000081110E94000059
:1004900080E090E0892B49F080E090E0892B29F002
:1004A0000E94000081110E94000080E090E0892BF2
:1004B00049F080E090E0892B29F00E940000811132
:1004C0000C9400000895AF92BF92CF92DF92EF920A
:1004D000FF920F931F93CF93DF936C017B018B01EE
:1004E000040F151FEB015E01AE18BF08C017D1073E
:1004F00059F06991D601ED91FC910190F081E02DC8
:10050000C6011995892B79F7C501DF91CF911F910C
:100510000F91FF90EF90DF90CF90BF90AF90089534
:1005200042E050E064E172E08BE292E00C946302FE
:100530001F920F920FB60F9211242F933F938F9318
:100540009F93AF93BF938091270290912802A0912F
:100550002902B0912A023091260223E0230F2D3781
:1005600058F50196A11DB11D209326028093270204
:1005700090932802A0932902B0932A02809122022C
:1005800090912302A0912402B09125020196A11D11
:10059000B11D8093220290932302A0932402B09372
:1005A0002502BF91AF919F918F913F912F910F9015
:1005B0000FBE0F901F90189526E8230F0296A11DDD
:1005C000B11DD2CF1F920F920FB60F9211240BB60E
:1005D0000F922F933F934F935F936F937F938F93DC
:1005E0009F93AF93BF93EF93FF938BE292E00E94B0
:1005F000A301FF91EF91BF91AF919F918F917F9157
:100600006F915F914F913F912F910F900BBE0F9083
:100610000FBE0F901F9018951F920F920FB60F925A
:1006200011240BB60F922F938F939F93EF93FF9309
:10063000E0913B02F0913C028081E0914102F09117
:10064000420282FD1DC09081809144028F5F8F73B2
:1006500020914502821741F0E0914402F0E0E55D0F
:10066000FD4F958F80934402FF91EF919F918F9161
:100670002F910F900BBE0F900FBE0F901F901895EB
:100680008081F2CFEBE2F2E01382128288EE93E0F7
:10069000A0E0B0E084839583A683B78386E092E0F0
:1006A0009183808385EC90E09587848784EC90E04B
:1006B0009787868780EC90E0918B808B81EC90E02F
:1006C000938B828B82EC90E0958B848B86EC90E010
:1006D000978B868B118E128E138E148E08957894BC
:1006E00084B5826084BD84B5816084BD85B5826037
:1006F00085BD85B5816085BD80916E0081608093E8
:100700006E00109281008091810082608093810050
:100710008091810081608093810080918000816060
:10072000809380008091B10084608093B1008091BB
:10073000B00081608093B0008091910082608093CE
:100740009100809191008160809391008091900050
:100750008160809390008091A10082608093A100CD
:100760008091A10081608093A1008091A0008160B0
:100770008093A0008091210182608093210180916B
:10078000210181608093210180912001816080930B
:10079000200180917A00846080937A0080917A00B1
:1007A000826080937A0080917A00816080937A00E1
:1007B00080917A00806880937A001092C100E09165
:1007C0003B02F0913C0282E08083E0913702F0919D
:1007D00038021082E0913902F0913A028FEC808366
:1007E00010924302E0913F02F091400286E0808344
:1007F000E0913D02F0913E02808180618083E09132
:100800003D02F0913E02808188608083E0913D024C
:10081000F0913E02808180688083E0913D02F091FA
:100820003E0280818F7D80838FEF81B99FE094B9F4
:1008300087B99FE89AB998E39DB997E293BB98E08E
:10084000909301011092040180930A0112B880EF85
:1008500085B918B81BB81EB814BA83E78093020193
:1008600083E08093050110920B018AE0D82EC4E644
:10087000D0E002E010E0EE24E394F12C8BE292E071
:100880000E948D01892B19F18BE292E00E946B018D
:10089000C82E682F8BE292E00E94C5010E94900250
:1008A00080ED8C0D8A3098F4809120029091210285
:1008B000D89E9001D99E300D11248C2DCC0C990B13
:1008C000C097820F931F9093210280932002209162
:1008D000200230912102C901BE010E940E064CE99E
:1008E0004603F001479FF00D1124E20FF31F613022
:1008F000710509F0B9C03297E433F10508F059C029
:100900008827EA57FB4F8F4F0C942206BA04C00485
:10091000C204C404C604D904D904D904D904D9042E
:10092000D904D904D904D904D904D9040C06DC04A7
:10093000DE04E004E204E404E604E804EA04EC046F
:10094000EE04F004F204F404F604F804FA04FC04DF
:10095000FE04000502050405060508050A05100544
:10096000140518051C052005240528052C052E0551
:1009700030053205749A109221021092200219C09B
:10098000759AF9CFA59AF7CF739AF5CF80910201A6
:10099000886080930201109221021092200248E0A8
:1009A00050E067E172E08BE292E00E9463020E94F5
:1009B00090020E94320262CF5A9ADDCF599ADBCF61
:1009C000589AD9CF109AD7CF119AD5CF129AD3CFA0
:1009D000139AD1CF149ACFCF159ACDCF169ACBCFE9
:1009E000179AC9CF479AC7CF469AC5CF459AC3CF62
:1009F000449AC1CF439ABFCF429ABDCF419ABBCF51
:100A0000409AB9CF5F9AB7CFA29AB5CFA19AB3CF88
:100A1000A09AB1CF80910B01806880930B01ABCF7E
:100A200080910B018064F9CF80910B018062F5CF3A
:100A300080910B018061F1CF80910B018860EDCF37
:100A400080910B018460E9CF80910B018260E5CF3A
:100A500080910B018160E1CF2B9A8DCF2A9A8BCFA9
:100A6000299A89CF289A87CF6230710509F0ADC0E5
:100A70003297E433F10508F09CCF8827ED5BFA4FFD
:100A80008F4F0C942206770579057B057D057F0540
:100A9000D904D904D904D904D904D904D904D9046E
:100AA000D904D904D9048505870589058B058D05E9
:100AB0008F0593059505970599059B059D059F0550
:100AC000A105A305A505A705A905AB05AF05B105BA
:100AD000B305B505B905BB05BF05C305C705CB05FE
:100AE000CF05D305D705DB05DD05DF05E3057498E4
:100AF00042CF759840CFA5983ECF73983CCF809158
:100B00000201877F8093020136CF5B9834CF5A98D9
:100B100032CF599830CF58982ECF10982CCF82B121
:100B2000825082B928CF129826CF139824CF1498D8
:100B300022CF159820CF16981ECF17981CCF479814
:100B40001ACF469818CF459816CF449814CF43989B
:100B500012CF429810CF88B1825088B90CCF4098FC
:100B60000ACF5F9808CFA29806CF84B3825084BB87
:100B700002CFA09800CF80910B018F774ECF80914C
:100B80000B018F7B4ACF80910B018F7D46CF8091E7
:100B90000B018F7E42CF80910B01877F3ECF8091EA
:100BA0000B018B7F3ACF80910B018D7F36CF8091E7
:100BB0000B018E7F32CF2B98DECE2A98DCCE85B10A
:100BC000825085B9D8CE2898D6CE6330710509F009
:100BD000F0CEE330F10559F0E231F10569F03297DA
:100BE00009F0E7CEF0920102E0920002C4CE109329
:100BF000010200930002DDCE80910002909101027B
:100C00000197029708F4B7CE759AA59A739A8091C6
:100C100002018860809302015B9AADCE97FB072E9C
:100C200016F4009407D077FD09D00E942A0607FC2D
:100C300005D03EF4909581959F4F089570956195EC
:100C40007F4F0895EE0FFF1F881F8BBF0790F6910F
:100C5000E02D1994AA1BBB1B51E107C0AA1FBB1FA3
:100C6000A617B70710F0A61BB70B881F991F5A9538
:100C7000A9F780959095BC01CD010895F894FFCF18
:100C8000010000000000C50163025C0112028D0139
:100C90006B017F010D0A005265636569766564002A
:00000001FF
