:100000000C9421010C9452010C9452010C94520155
:100010000C9452010C9452010C9452010C94520114
:100020000C9452010C9452010C9452010C94520104
:100030000C9452010C9452010C9452010C945201F4
:100040000C9452010C9452010C9452010C945201E4
:100050000C9452010C9452010C9452010C9488029D
:100060000C9452010C94FC020C94D2020C94520198
:100070000C9452010C9452010C9452010C945201B4
:100080000C9452010C9452010C9452010C945201A4
:100090000C9452010C9452010C9452010C94520194
:1000A0000C9452010C9452010C9452010C94520184
:1000B0000C9452010C9452010C9452010C94520174
:1000C0000C9452010C9452010C9452010C94520164
:1000D0000C9452010C9452010C9452010C94520154
:1000E0000C9452010C940C050C94B4040C94E70489
:1000F0000C94E1040C940A020C94E3050C94D105D1
:100100000C9477010C94C8050C94B1040C9431053F
:100110000C9437050C94AA050C9432030C94D40467
:100120000C94AA040C947D050C94FD040C94D40545
:100130000C94F3050C94BD010C94A4050C94FD05DE
:100140000C94D0040C9483050C9485010C942D051B
:100150000C94E4040C94CE050C9454010C940F05FB
:100160000C9403050C94B9050C94A7050C9429056F
:100170000C94CB050C9419050C94DB050C94D70456
:100180000C948F050C9498050C94D7050C94EB05F2
:100190000C9415050C9480050C94FA050C94B0058C
:1001A0000C9486050C9406050C94CD040C94C205A1
:1001B0000C94A1050C94AD040C9421050C9400053D
:1001C0000C94B3050C9400060C941D050C94DF05EB
:1001D0000C94ED040C94EA040C949E050C94F00429
:1001E0000C94DA040C94DE040C94BF050C94B60550
:1001F0000C94F7050C94F4040C9489050C94F70402
:100200000C94FA040C94EF050C9463010C943006E2
:100210000C9492050C94BC050C945B020C94AD05F7
:100220000C9425050C94C5050C949B050C94E705CE
:100230000C94A2040C9495050C9409050C943405B7
:10024000320311241FBECFEFD1E2DEBFCDBF00E0ED
:100250000CBF12E0A0E0B2E0EAECFCE000E00BBF73
:1002600002C007900D92A032B107D9F722E0A0E2B8
:10027000B2E001C01D92A83CB207E1F711E0C1E273
:10028000D1E000E006C021970109802FFE010E9405
:100290004706C032D10780E00807A9F70E945F0334
:1002A0000C9463060C940000FC01538D448D252FA3
:1002B00030E0842F90E0821B930B541710F0CF9600
:1002C000089501970895FC01918D828D981761F032
:1002D000A28DAE0FBF2FB11D5D968C91928D9F5F49
:1002E0009F73928F90E008958FEF9FEF0895FC0128
:1002F000918D828D981731F0828DE80FF11D858DDB
:1003000090E008958FEF9FEF0895FC01918D228D6D
:10031000892F90E0805C9F4F821B91098F739927F2
:10032000089582E292E00E94850121E0892B09F480
:1003300020E0822F0895FC01A48DA80FB92FB11DD4
:10034000A35ABF4F2C91848D90E001968F7399270B
:10035000848FA689B7892C93A089B1898C918370E9
:1003600080648C93938D848D981306C00288F389E2
:10037000E02D80818F7D80830895EF92FF920F930F
:100380001F93CF93DF93EC0181E0888F9B8D8C8D41
:1003900098131AC0E889F989808185FF15C09FB735
:1003A000F894EE89FF896083E889F98980818370F8
:1003B000806480839FBF81E090E0DF91CF911F91A7
:1003C0000F91FF90EF900895F62E0B8D10E00F5FC8
:1003D0001F4F0F731127E02E8C8D8E110CC00FB69E
:1003E00007FCFACFE889F989808185FFF5CFCE0136
:1003F0000E949B01F1CFEB8DEC0FFD2FF11DE35A15
:10040000FF4FF0829FB7F8940B8FEA89FB898081B8
:100410008062CFCFCF93DF93EC01888D8823B9F032
:10042000AA89BB89E889F9898C9185FD03C08081FF
:1004300086FD0DC00FB607FCF7CF8C9185FFF2CF7C
:10044000808185FFEDCFCE010E949B01E9CFDF9136
:10045000CF91089580E090E0892B29F00E949101CE
:1004600081110E94000080E090E0892B49F080E03B
:1004700090E0892B29F00E94000081110E94000069
:1004800080E090E0892B49F080E090E0892B29F012
:100490000E94000081110E94000080E090E0892B02
:1004A00049F080E090E0892B29F00E940000811142
:1004B0000C9400000895AF92BF92CF92DF92EF921A
:1004C000FF920F931F93CF93DF936C017B018B01FE
:1004D000040F151FEB015E01AE18BF08C017D1074E
:1004E00059F06991D601ED91FC910190F081E02DD8
:1004F000C6011995892B79F7C501DF91CF911F911D
:100500000F91FF90EF90DF90CF90BF90AF90089544
:100510001F920F920FB60F9211242F933F938F9338
:100520009F93AF93BF938091C4029091C502A09115
:10053000C602B091C7023091C30223E0230F2D37CA
:1005400058F50196A11DB11D2093C3028093C402EA
:100550009093C502A093C602B093C7028091BF02D8
:100560009091C002A091C102B091C2020196A11D5A
:10057000B11D8093BF029093C002A093C102B093BB
:10058000C202BF91AF919F918F913F912F910F9098
:100590000FBE0F901F90189526E8230F0296A11DFD
:1005A000B11DD2CF1F920F920FB60F9211240BB62E
:1005B0000F922F933F934F935F936F937F938F93FC
:1005C0009F93AF93BF93EF93FF9382E292E00E94D9
:1005D0009B01FF91EF91BF91AF919F918F917F917F
:1005E0006F915F914F913F912F910F900BBE0F90A4
:1005F0000FBE0F901F9018951F920F920FB60F927B
:1006000011240BB60F922F938F939F93EF93FF9329
:10061000E0913202F09133028081E0913802F09152
:10062000390282FD1DC0908180913B028F5F8F73E4
:1006300020913C02821741F0E0913B02F0E0EE5D38
:10064000FD4F958F80933B02FF91EF919F918F918A
:100650002F910F900BBE0F900FBE0F901F9018950B
:100660008081F2CFE2E2F2E01382128288EE93E020
:10067000A0E0B0E084839583A683B78386E092E010
:100680009183808385EC90E09587848784EC90E06B
:100690009787868780EC90E0918B808B81EC90E04F
:1006A000938B828B82EC90E0958B848B86EC90E030
:1006B000978B868B118E128E138E148E08957894DC
:1006C00084B5826084BD84B5816084BD85B5826057
:1006D00085BD85B5816085BD80916E008160809308
:1006E0006E00109281008091810082608093810071
:1006F0008091810081608093810080918000816081
:10070000809380008091B10084608093B1008091DB
:10071000B00081608093B0008091910082608093EE
:100720009100809191008160809391008091900070
:100730008160809390008091A10082608093A100ED
:100740008091A10081608093A1008091A0008160D0
:100750008093A0008091210182608093210180918B
:10076000210181608093210180912001816080932B
:10077000200180917A00846080937A0080917A00D1
:10078000826080937A0080917A00816080937A0001
:1007900080917A00806880937A001092C100E09185
:1007A0003202F091330282E08083E0912E02F091D8
:1007B0002F021082E0913002F09131028FEC8083A1
:1007C00010923A02E0913602F091370286E080837F
:1007D000E0913402F0913502808180618083E09164
:1007E0003402F0913502808188608083E091340288
:1007F000F0913502808180688083E0913402F0912D
:10080000350280818F7D80838FEF81B99FE094B91D
:1008100087B99FE89AB998E39DB997E293BB98E0AE
:10082000909301011092040180930A0112B880EFA5
:1008300085B918B81BB81EB814BA83E780930201B3
:1008400083E08093050110920B018AE0D82EC4E664
:10085000D0E002E010E0EE24E394F12C82E292E09A
:100860000E948501892BD9F0A0902002B09021022E
:1008700082E292E00E94630190ED980F9A3078F442
:10088000DA9C9001DB9C300D1124082E000C990B92
:10089000C097820F931F9093210280932002209192
:1008A000200230912102C901BE010E9433064CE9A9
:1008B0004603F001479FF00D1124E20FF31F613052
:1008C000710509F0D7C03297E433F10508F065C02F
:1008D0008827E259FB4F8F4F0C944706A204AA04C5
:1008E000AD04B104B404CD04CD04CD04CD04CD04D5
:1008F000CD04CD04CD04CD04CD04CD043006D00408
:10090000D404D704DA04DE04E104E404E704EA04CE
:10091000ED04B005B305F004F404F704FA04FD0493
:1009200000050305CB05060509050C05D7050F05D0
:10093000150519051D052105250529052D05310577
:10094000340537058EB1805F8EB910922102109266
:10095000200223C08EB1805EF7CF84B3805E84BB5B
:10096000F4CF8EB1885FF0CF80910201885F8093D1
:100970000201109221021092200248E050E064E14E
:1009800072E082E292E00E945B0242E050E06DE1A0
:1009900072E082E292E00E945B020E942A025ECF35
:1009A0008BB18C5F8BB9D1CF8BB18E5FFBCF8BB10D
:1009B0008F5FF8CF82B18F5F82B9C7CF82B18E5F70
:1009C000FBCF82B18C5FF8CF82B1885FF5CF82B167
:1009D000805FF2CF82B1805EEFCF82B1805CECCFDE
:1009E00088B1805C88B9B1CF88B1805EFBCF88B117
:1009F000805FF8CF88B1885FF5CF88B18C5FF2CF88
:100A000088B18E5FEFCF88B18F5FECCF84B38C5FFE
:100A1000A6CF84B38E5FA3CF84B38F5FA0CF809126
:100A20000B01805C80930B0190CF80910B01805E65
:100A3000F9CF80910B01805FF5CF80910B01885F2A
:100A4000F1CF80910B018C5FEDCF80910B018E5F18
:100A5000E9CF80910B018F5FE5CF85B1885F85B9C4
:100A600074CF85B18C5FFBCF85B18E5FF8CF85B138
:100A70008F5FF5CF6230710509F0C5C03297E4335E
:100A8000F10508F08ACF8827E75BFA4F8F4F0C9467
:100A900047067D058005830586058905CD04CD04BF
:100AA000CD04CD04CD04CD04CD04CD04CD04CD04BE
:100AB000CD048F059205950598059B059E05A1051A
:100AC000A405A705AA05AD05B005B305B605B9058A
:100AD000BC05BF05C205C505C805CB05CE05D105BA
:100AE000D405D705DB05DF05E305E705EB05EF05D5
:100AF000F305F705FA05FD0500068EB1805124CFF8
:100B00008EB1805221CF84B3805229CF8EB18850CC
:100B10001BCF8091020188508093020116CF8BB1C8
:100B2000885040CF8BB184503DCF8BB182503ACFAB
:100B30008BB1815037CF82B181503ECF82B182508C
:100B40003BCF82B1845038CF82B1885035CF82B14B
:100B5000805132CF82B180522FCF82B180542CCFBE
:100B600082B1805829CF88B180583CCF88B1805459
:100B700039CF88B1805236CF88B1805133CF88B118
:100B8000885030CF88B184502DCF88B182502ACF81
:100B900088B1815027CF8BB1805804CF84B3845063
:100BA000DECE84B38250DBCE84B38150D8CE809128
:100BB0000B01805837CF80910B01805433CF809147
:100BC0000B0180522FCF80910B0180512BCF809150
:100BD0000B01885027CF80910B01845023CF809147
:100BE0000B0182501FCF80910B0181501BCF85B12B
:100BF000885035CF85B1845032CF85B182502FCF08
:100C000085B181502CCF6330710509F0C6CEE33039
:100C1000F10559F0E231F10569F0329709F0BDCEE6
:100C2000F0920102E092000290CE10930102009334
:100C30000002B3CE809100029091010201970297C9
:100C400008F483CE8EB1805E8EB984B3805E84BB9F
:100C50008EB1885F8EB980910201885F8093020116
:100C60008BB1885F9FCE97FB072E16F4009407D0B8
:100C700077FD09D00E944F0607FC05D03EF4909501
:100C800081959F4F0895709561957F4F0895EE0F60
:100C9000FF1F881F8BBF0790F691E02D1994AA1BA8
:100CA000BB1B51E107C0AA1FBB1FA617B70710F057
:100CB000A61BB70B881F991F5A95A9F78095909589
:0A0CC000BC01CD010895F894FFCFA8
:100CCA00010000000000BD015B0254010A02850117
:100CDA00630177015265636569766564000D0A00F0
:00000001FF
