:100000000C9437010C9468010C9468010C946801FD
:100010000C9468010C9468010C9468010C946801BC
:100020000C9468010C9468010C9468010C946801AC
:100030000C9468010C9468010C9468010C9468019C
:100040000C9468010C9468010C9468010C9468018C
:100050000C9468010C9468010C9468010C94BC0227
:100060000C9468010C9430030C9406030C94680102
:100070000C9468010C9468010C9468010C9468015C
:100080000C9468010C9468010C9468010C9468014C
:100090000C9468010C9468010C9468010C9468013C
:1000A0000C9468010C9468010C9468010C9468012C
:1000B0000C9468010C9468010C9468010C9468011C
:1000C0000C9468010C9468010C9468010C9468010C
:1000D0000C9468010C9468010C9468010C946801FC
:1000E0000C9468010C9426050C9412050C940C05D4
:1000F0000C9420020C948D010C94E3050C94C9051A
:100100000C94DF050C942A050C94DD050C940A056B
:100110000C9452050C94D7050C94B3050C94C305AC
:100120000C949B050C94D3010C9433060C942C0571
:100130000C949F050C94FD040C949B010C94CD052C
:100140000C9410050C9428050C94F7050C942906C2
:100150000C946A010C94F3050C9414050C94080596
:100160000C94B7050C94C5050C94BF050C94B1050F
:100170000C944C050C94DE040C94E4040C940005DF
:100180000C941C050C94BD050C94AD050C94A905AC
:100190000C94D3050C94B9050C9440060C941A05E4
:1001A0000C9404050C9454050C94EA040C943C053E
:1001B0000C94D9050C9450050C9420050C94E6047D
:1001C0000C942E060C9402050C94E8040C9466031F
:1001D0000C94EB050C94AF050C9422050C94A1052E
:1001E0000C9444050C944B060C94BB050C943405FC
:1001F0000C9403060C94CF050C94CB050C94EF05DE
:100200000C9436060C9418050C94FB050C945605BA
:100210000C9406050C94E7050C94C1050C9440055C
:100220000C94AB050C9401060C949D050C9452069D
:100230000C94FF050C94C7050C94A3050C94480579
:100240000C94D5050C942E050C9424050C941605DD
:100250000C9438050C9443060C9479010C941E05FB
:100260000C9471020C9407060C940E05660311247D
:100270001FBECFEFD1E2DEBFCDBF00E00CBF12E06A
:10028000A0E0B2E0ECE0FDE000E00BBF02C00790B0
:100290000D92A032B107D9F722E0A0E2B2E001C08E
:1002A0001D92A83CB207E1F711E0C7E3D1E000E0FE
:1002B00006C021970109802FFE010E946806C633FF
:1002C000D10780E00807A9F70E9493030C948406E5
:1002D0000C940000FC01538D448D252F30E0842FB9
:1002E00090E0821B930B541710F0CF96089501975E
:1002F0000895FC01918D828D981761F0A28DAE0F4B
:10030000BF2FB11D5D968C91928D9F5F9F73928FD1
:1003100090E008958FEF9FEF0895FC01918D828DFD
:10032000981731F0828DE80FF11D858D90E00895CA
:100330008FEF9FEF0895FC01918D228D892F90E022
:10034000805C9F4F821B91098F73992708958BE2E0
:1003500092E00E949B0121E0892B09F420E0822F8A
:100360000895FC01A48DA80FB92FB11DA35ABF4F4A
:100370002C91848D90E001968F739927848FA689A4
:10038000B7892C93A089B1898C91837080648C93F8
:10039000938D848D981306C00288F389E02D8081A7
:1003A0008F7D80830895EF92FF920F931F93CF93D9
:1003B000DF93EC0181E0888F9B8D8C8D98131AC0A0
:1003C000E889F989808185FF15C09FB7F894EE8987
:1003D000FF896083E889F9898081837080648083E4
:1003E0009FBF81E090E0DF91CF911F910F91FF902F
:1003F000EF900895F62E0B8D10E00F5F1F4F0F73D7
:100400001127E02E8C8D8E110CC00FB607FCFACF91
:10041000E889F989808185FFF5CFCE010E94B1017D
:10042000F1CFEB8DEC0FFD2FF11DE35AFF4FF08262
:100430009FB7F8940B8FEA89FB8980818062CFCFC8
:10044000CF93DF93EC01888D8823B9F0AA89BB890B
:10045000E889F9898C9185FD03C0808186FD0DC0F6
:100460000FB607FCF7CF8C9185FFF2CF808185FF17
:10047000EDCFCE010E94B101E9CFDF91CF91089578
:1004800080E090E0892B29F00E94A70181110E9451
:10049000000080E090E0892B49F080E090E0892B1B
:1004A00029F00E94000081110E94000080E090E08D
:1004B000892B49F080E090E0892B29F00E94000010
:1004C00081110E94000080E090E0892B49F080E0DB
:1004D00090E0892B29F00E94000081110C9400000B
:1004E0000895AF92BF92CF92DF92EF92FF920F9357
:1004F0001F93CF93DF936C017B018B01040F151FBA
:10050000EB015E01AE18BF08C017D10759F0699121
:10051000D601ED91FC910190F081E02DC601199575
:10052000892B79F7C501DF91CF911F910F91FF9032
:10053000EF90DF90CF90BF90AF900895A59A739AF7
:10054000E2E0F1E08081886080830895809100027C
:10055000909101020197029720F0759A90E080E057
:10056000089581E090E0089542E050E064E172E097
:100570008BE292E00C9471021F920F920FB60F92D1
:1005800011242F933F938F939F93AF93BF938091A9
:10059000270290912802A0912902B0912A0230915D
:1005A000260223E0230F2D3758F50196A11DB11D1A
:1005B000209326028093270290932802A093290279
:1005C000B0932A028091220290912302A0912402EA
:1005D000B09125020196A11DB11D80932202909336
:1005E0002302A0932402B0932502BF91AF919F9163
:1005F0008F913F912F910F900FBE0F901F901895E4
:1006000026E8230F0296A11DB11DD2CF1F920F9293
:100610000FB60F9211240BB60F922F933F934F9367
:100620005F936F937F938F939F93AF93BF93EF935A
:10063000FF938BE292E00E94B101FF91EF91BF9195
:10064000AF919F918F917F916F915F914F913F916A
:100650002F910F900BBE0F900FBE0F901F9018950B
:100660001F920F920FB60F9211240BB60F922F9379
:100670008F939F93EF93FF93E0913B02F0913C02A5
:100680008081E0914102F091420282FD1DC0908183
:10069000809144028F5F8F7320914502821741F051
:1006A000E0914402F0E0E55DFD4F958F80934402B8
:1006B000FF91EF919F918F912F910F900BBE0F9013
:1006C0000FBE0F901F9018958081F2CFEBE2F2E001
:1006D0001382128288EE93E0A0E0B0E084839583D9
:1006E000A683B78386E092E09183808385EC90E0D7
:1006F0009587848784EC90E09787868780EC90E0EC
:10070000918B808B81EC90E0938B828B82EC90E0DC
:10071000958B848B86EC90E0978B868B118E128E56
:10072000138E148E0895789484B5826084BD84B548
:10073000816084BD85B5826085BD85B5816085BDDC
:1007400080916E00816080936E0010928100809194
:10075000810082608093810080918100816080931C
:100760008100809180008160809380008091B10041
:1007700084608093B1008091B00081608093B0006C
:1007800080919100826080939100809191008160BE
:10079000809391008091900081608093900080917F
:1007A000A10082608093A1008091A100816080936C
:1007B000A1008091A00081608093A0008091210120
:1007C00082608093210180912101816080932101C9
:1007D0008091200181608093200180917A00846063
:1007E00080937A0080917A00826080937A00809171
:1007F0007A00816080937A0080917A00806880938B
:100800007A001092C100E0913B02F0913C0282E03C
:100810008083E0913702F09138021082E091390232
:10082000F0913A028FEC808310924302E0913F02F4
:10083000F091400286E08083E0913D02F0913E021B
:10084000808180618083E0913D02F0913E02808151
:1008500088608083E0913D02F0913E028081806853
:100860008083E0913D02F0913E0280818F7D808304
:100870008FEF81B99FE094B987B99FE89AB998E35F
:100880009DB997E293BB98E0909301011092040107
:1008900080930A0112B880EF85B918B81BB81EB84A
:1008A00014BA83E78093020183E0809305011092DC
:1008B0000B018AE0D82EC4E6D0E002E010E0EE247E
:1008C000E394F12C8BE292E00E949B01892B19F1B9
:1008D0008BE292E00E947901C82E682F8BE292E0B1
:1008E0000E94D3010E94B40280ED8C0D8A3098F4EE
:1008F0008091200290912102D89E9001D99E300DC6
:1009000011248C2DCC0C990BC097820F931F9093C0
:100910002102809320022091200230912102C901FE
:10092000BE010E9454064CE94603F001479FF00DBA
:100930001124E20FF31F6130710509F0B9C032973D
:10094000E433F10508F059C08827E655FB4F8F4F77
:100950000C946806DE04E404E604E804EA04FD04FA
:10096000FD04FD04FD04FD04FD04FD04FD04FD047F
:10097000FD04FD04520600050205040506050805F0
:100980000A050C050E0510051205140516051805B7
:100990001A051C051E052005220524052605280527
:1009A0002A052C052E05340538053C05400544056F
:1009B00048054C055005520554055605749A109289
:1009C00021021092200219C0759AF9CFA59AF7CF8B
:1009D000739AF5CF80910201886080930201109292
:1009E00021021092200248E050E067E172E08BE2C1
:1009F00092E00E9471020E94B4020E94400262CF03
:100A00005A9ADDCF599ADBCF589AD9CF109AD7CFBF
:100A1000119AD5CF129AD3CF139AD1CF149ACFCFA0
:100A2000159ACDCF169ACBCF179AC9CF479AC7CF71
:100A3000469AC5CF459AC3CF449AC1CF439ABFCFF8
:100A4000429ABDCF419ABBCF409AB9CF5F9AB7CFF8
:100A5000A29AB5CFA19AB3CFA09AB1CF80910B0142
:100A6000806880930B01ABCF80910B018064F9CF3C
:100A700080910B018062F5CF80910B018061F1CFF5
:100A800080910B018860EDCF80910B018460E9CFEC
:100A900080910B018260E5CF80910B018160E1CFF5
:100AA0002B9A8DCF2A9A8BCF299A89CF289A87CFD4
:100AB0006230710509F0ADC03297E433F10508F0FA
:100AC0009CCF8827E959FA4F8F4F0C9468069B05F5
:100AD0009D059F05A105A305FD04FD04FD04FD047E
:100AE000FD04FD04FD04FD04FD04FD04FD04A90551
:100AF000AB05AD05AF05B105B305B705B905BB0538
:100B0000BD05BF05C105C305C505C705C905CB059D
:100B1000CD05CF05D305D505D705D905DD05DF05FD
:100B2000E305E705EB05EF05F305F705FB05FF0515
:100B3000010603060706749842CF759840CFA59822
:100B40003ECF73983CCF80910201877F8093020152
:100B500036CF5B9834CF5A9832CF599830CF5898C7
:100B60002ECF10982CCF82B1825082B928CF129804
:100B700026CF139824CF149822CF159820CF1698FB
:100B80001ECF17981CCF47981ACF469818CF459874
:100B900016CF449814CF439812CF429810CF88B103
:100BA000825088B90CCF40980ACF5F9808CFA2989E
:100BB00006CF84B3825084BB02CFA09800CF80912F
:100BC0000B018F774ECF80910B018F7B4ACF8091A5
:100BD0000B018F7D46CF80910B018F7E42CF80919C
:100BE0000B01877F3ECF80910B018B7F3ACF8091A5
:100BF0000B018D7F36CF80910B018E7F32CF2B98EA
:100C0000DECE2A98DCCE85B1825085B9D8CE289820
:100C1000D6CE6330710509F0F0CE3297E131F1059F
:100C200008F0EBCE8827E85EF94F8F4F0C946806EA
:100C300029062E063306360640064306FD04FD044B
:100C4000FD04FD04FD04FD04FD04FD04FD04FD049C
:100C50004B06F0920102E0920002B1CE1093010225
:100C600000930002CACE0E94A602C7CE8091000265
:100C700090910102019711F47498BFCE7598BDCE82
:100C80000E949E02BACEA598739880910201877F38
:100C900080930201B2CE0E94A602892B09F08FCE6A
:100CA0000E949E025B9A8BCE97FB072E16F400944F
:100CB00007D077FD09D00E94700607FC05D03EF4EE
:100CC000909581959F4F0895709561957F4F0895F8
:100CD000EE0FFF1F881F8BBF0790F691E02D199430
:100CE000AA1BBB1B51E107C0AA1FBB1FA617B70752
:100CF00010F0A61BB70B881F991F5A95A9F780956E
:0C0D00009095BC01CD010895F894FFCF40
:100D0C00010000000000D30171026A0120029B0166
:100D1C0079018D010D0A0052656365697665640081
:00000001FF
