:100000000C9483000C94B4000C94B4000C94B400D1
:100010000C94B4000C94B4000C94B4000C94B40090
:100020000C94B4000C94B4000C94B4000C94B40080
:100030000C94B4000C94B4000C94B4000C94B40070
:100040000C94B4000C94B4000C94B4000C94B40060
:100050000C94B4000C94B4000C94B4000C94EA0119
:100060000C94B4000C945E020C9434020C94B40012
:100070000C94B4000C94B4000C94B4000C94B40030
:100080000C94B4000C94B4000C94B4000C94B40020
:100090000C94B4000C94B4000C94B4000C94B40010
:1000A0000C94B4000C94B4000C94B4000C94B40000
:1000B0000C94B4000C94B4000C94B4000C94B400F0
:1000C0000C94B4000C94B4000C94B4000C94B400E0
:1000D0000C94B4000C94B4000C94B4000C94B400D0
:1000E0000C94B4000C94C5000C94E7000C94D90057
:1000F0000C94BD010C946C010C94B6000C94940209
:100100000C941F01940211241FBECFEFD1E2DEBF79
:10011000CDBF00E00CBF12E0A0E0B2E0E6EEF8E0F8
:1001200000E00BBF02C007900D92AE31B107D9F7C6
:1001300022E0AEE1B2E001C01D92A63CB207E1F7B9
:1001400010E0C3E8D0E000E006C021970109802F4D
:10015000FE010E946904C238D10780E00807A9F7B0
:100160000E94C1020C9471040C940000FC01538D98
:10017000448D252F30E0842F90E0821B930B541781
:1001800010F0CF96089501970895FC01918D828D0E
:10019000981761F0A28DAE0FBF2FB11D5D968C91A7
:1001A000928D9F5F9F73928F90E008958FEF9FEFE6
:1001B0000895FC01918D828D981731F0828DE80FA2
:1001C000F11D858D90E008958FEF9FEF0895FC015C
:1001D000918D228D892F90E0805C9F4F821B910929
:1001E0008F739927089580E292E00E94E70021E052
:1001F000892B09F420E0822F0895FC01A48DA80F1B
:10020000B92FB11DA35ABF4F2C91848D90E0019658
:100210008F739927848FA689B7892C93A089B18978
:100220008C91837080648C93938D848D981306C019
:100230000288F389E02D80818F7D80830895EF927D
:10024000FF920F931F93CF93DF93EC0181E0888F90
:100250009B8D8C8D98131AC0E889F989808185FF60
:1002600015C09FB7F894EE89FF896083E889F98902
:1002700080818370806480839FBF81E090E0DF9104
:10028000CF911F910F91FF90EF900895F62E0B8D57
:1002900010E00F5F1F4F0F731127E02E8C8D8E1112
:1002A0000CC00FB607FCFACFE889F989808185FF79
:1002B000F5CFCE010E94FD00F1CFEB8DEC0FFD2FAD
:1002C000F11DE35AFF4FF0829FB7F8940B8FEA8934
:1002D000FB8980818062CFCFCF93DF93EC01888D43
:1002E0008823B9F0AA89BB89E889F9898C9185FDB1
:1002F00003C0808186FD0DC00FB607FCF7CF8C913F
:1003000085FFF2CF808185FFEDCFCE010E94FD00F9
:10031000E9CFDF91CF91089580E090E0892B29F01B
:100320000E94F30081110E94000080E090E0892B80
:1003300049F080E090E0892B29F00E9400008111B3
:100340000E94000080E090E0892B49F080E090E07E
:10035000892B29F00E94000081110E94000080E09A
:1003600090E0892B49F080E090E0892B29F00E94F1
:10037000000081110C9400000895AF92BF92CF92BB
:10038000DF92EF92FF920F931F93CF93DF936C0155
:100390007B018B01040F151FEB015E01AE18BF0836
:1003A000C017D10759F06991D601ED91FC910190E8
:1003B000F081E02DC6011995892B79F7C501DF91F0
:1003C000CF911F910F91FF90EF90DF90CF90BF9052
:1003D000AF9008951F920F920FB60F9211242F9392
:1003E0003F938F939F93AF93BF938091C20290915D
:1003F000C302A091C402B091C5023091C10223E0B2
:10040000230F2D3758F50196A11DB11D2093C10270
:100410008093C2029093C302A093C402B093C5021A
:100420008091BD029091BE02A091BF02B091C00226
:100430000196A11DB11D8093BD029093BE02A093B1
:10044000BF02B093C002BF91AF919F918F913F9136
:100450002F910F900FBE0F901F90189526E8230F35
:100460000296A11DB11DD2CF1F920F920FB60F920F
:1004700011240BB60F922F933F934F935F936F937B
:100480007F938F939F93AF93BF93EF93FF9380E2FC
:1004900092E00E94FD00FF91EF91BF91AF919F917B
:1004A0008F917F916F915F914F913F912F910F901D
:1004B0000BBE0F900FBE0F901F9018951F920F92BA
:1004C0000FB60F9211240BB60F922F938F939F9319
:1004D000EF93FF93E0913002F09131028081E0913F
:1004E0003602F091370282FD1DC090818091390261
:1004F0008F5F8F7320913A02821741F0E0913902A9
:10050000F0E0E05EFD4F958F80933902FF91EF910F
:100510009F918F912F910F900BBE0F900FBE0F9058
:100520001F9018958081F2CFE0E2F2E013821282F0
:1005300088EE93E0A0E0B0E084839583A683B78340
:1005400084E092E09183808385EC90E095878487B6
:1005500084EC90E09787868780EC90E0918B808B8D
:1005600081EC90E0938B828B82EC90E0958B848B76
:1005700086EC90E0978B868B118E128E138E148EE4
:100580000895789484B5826084BD84B5816084BD0B
:1005900085B5826085BD85B5816085BD80916E0021
:1005A000816080936E001092810080918100826052
:1005B000809381008091810081608093810080918F
:1005C00080008160809380008091B100846080937E
:1005D000B1008091B00081608093B0008091910063
:1005E000826080939100809191008160809391005E
:1005F000809190008160809390008091A100826042
:100600008093A1008091A10081608093A1008091DE
:10061000A00081608093A00080912101826080937E
:10062000210180912101816080932101809120012D
:1006300081608093200180917A00846080937A00A9
:1006400080917A00826080937A0080917A00816044
:1006500080937A0080917A00806880937A0010926B
:10066000C100E0913002F091310282E08083E0919C
:100670002C02F0912D021082E0912E02F0912F02B7
:100680008FEC808310923802E0913402F0913502B1
:1006900086E08083E0913202F091330280818061B4
:1006A0008083E0913202F091330280818860808300
:1006B000E0913202F0913302808180688083E09182
:1006C0003202F091330280818F7D80838FEF81B978
:1006D0009FE094B987B99FE89AB998E39DB997E2EA
:1006E00093BB98E0909301011092040180930A015A
:1006F00012B815B818B81BB81EB814BA1092020177
:100700001092050110920B01CAE0D0E180E292E064
:100710000E94E700892BD9F000911E0210911F0260
:1007200080E292E00E94C50090ED980F9A3078F434
:10073000C09F9001C19F300D1124082E000C990B11
:10074000C097820F931F90931F0280931E02809187
:100750001E0290911F028A3C910509F4A2C08CF5FB
:100760008A36910509F47DC0B4F48736910509F401
:1007700071C03CF48636910509F464C00E948C0176
:10078000C5CF8836910509F468C089369105B1F75F
:100790008EB1885F59C08737910509F47CC03CF45D
:1007A0008637910559F78BB1885F8BB94EC0883772
:1007B000910509F473C08937910501F78BB18F5FFB
:1007C000F4CF8A3D910509F478C09CF48C3C9105E6
:1007D00009F46DC00CF468C08D3C910509F46AC041
:1007E0008E3C910559F68091020188508093020158
:1007F0002CC08C3D910509F466C00CF461C08D3DA0
:10080000910509F463C08833914009F0B7CF86E0C1
:1008100090E0D5B93FEF43ED20E331504040204018
:10082000E1F700C0000025B1205125B93FEF43EDAD
:1008300020E3315040402040E1F700C00000019724
:1008400041F703C08EB1805F8EB910921F021092E3
:100850001E0294CF8EB1805EF7CF84B3805E84BBDE
:10086000F4CF80910201885F8093020110921F02F1
:1008700010921E0248E050E062E172E080E292E0F5
:100880000E94BD0142E050E06BE172E080E292E044
:100890000E94BD0173CF8BB18C5F87CF8BB18E5F10
:1008A00084CF8EB18051D0CF8EB18052CDCF84B362
:1008B0008052D5CF8EB18850C7CF8BB1885075CFBD
:1008C0008BB1845072CF8BB182506FCF8BB181507E
:1008D0006CCFEE0FFF1F881F8BBF0790F691E02DA6
:0608E0001994F894FFCF0B
:1008E600000000001F01BD01B6006C01E700C50055
:0E08F600D9005265636569766564000D0A00DD
:00000001FF
