:100000000C9421010C9452010C9452010C94520155
:100010000C9452010C9452010C9452010C94520114
:100020000C9452010C9452010C9452010C94520104
:100030000C9452010C9452010C9452010C945201F4
:100040000C9452010C9452010C9452010C945201E4
:100050000C9452010C9452010C9452010C94900295
:100060000C9452010C9404030C94DA020C94520187
:100070000C9452010C9452010C9452010C945201B4
:100080000C9452010C9452010C9452010C945201A4
:100090000C9452010C9452010C9452010C94520194
:1000A0000C9452010C9452010C9452010C94520184
:1000B0000C9452010C9452010C9452010C94520174
:1000C0000C9452010C9452010C9452010C94520164
:1000D0000C9452010C9452010C9452010C94520154
:1000E0000C9452010C94BA050C94C9050C94FA04B2
:1000F0000C94F1040C940A020C94CC050C94900519
:100100000C94C0050C9477010C94B7050C94BD05B4
:100110000C94FE040C9433050C9413050C948A057E
:100120000C94B1050C94F9050C943A060C94DE0479
:100130000C94F7040C94AB050C94D2050C94EB04CE
:100140000C9487050C94BD010C9407060C941605BD
:100150000C943B050C9485010C94AE050C94F105B0
:100160000C94E4040C9401060C942B050C94FD05EE
:100170000C9454010C94E8040C9437050C949905E4
:100180000C9419050C9404060C94C4040C941F05DB
:100190000C9493050C94DE050C94B2040C94ED05BC
:1001A0000C94D8050C94E5050C9404050C948D056D
:1001B0000C94EE040C94C1040C9410050C94F404FB
:1001C0000C94BA040C943E050C943A030C94230549
:1001D0000C94A5050C9401050C942F050C94D704E0
:1001E0000C940D050C949F050C94C3050C940A0601
:1001F0000C94BD040C94E1050C94F5050C94CF050A
:100200000C94E1040C949C050C94DA040C944105C4
:100210000C9427050C94D5050C9407050C94B40593
:100220000C94C6050C940A050C9463010C94A20569
:100230000C945B020C94DB050C94E9050C94A80566
:100240003A0311241FBECFEFD1E2DEBFCDBF00E0E5
:100250000CBF12E0A0E0B2E0EEEDFCE000E00BBF6E
:1002600002C007900D92A032B107D9F722E0A0E2B8
:10027000B2E001C01D92A83CB207E1F711E0C1E273
:10028000D1E000E006C021970109802FFE010E9405
:100290005106C032D10780E00807A9F70E94670322
:1002A0000C946D060C940000FC01538D448D252F99
:1002B00030E0842F90E0821B930B541710F0CF9600
:1002C000089501970895FC01918D828D981761F032
:1002D000A28DAE0FBF2FB11D5D968C91928D9F5F49
:1002E0009F73928F90E008958FEF9FEF0895FC0128
:1002F000918D828D981731F0828DE80FF11D858DDB
:1003000090E008958FEF9FEF0895FC01918D228D6D
:10031000892F90E0805C9F4F821B91098F739927F2
:1003200008958BE292E00E94850121E0892B09F477
:1003300020E0822F0895FC01A48DA80FB92FB11DD4
:10034000A35ABF4F2C91848D90E001968F7399270B
:10035000848FA689B7892C93A089B1898C918370E9
:1003600080648C93938D848D981306C00288F389E2
:10037000E02D80818F7D80830895EF92FF920F930F
:100380001F93CF93DF93EC0181E0888F9B8D8C8D41
:1003900098131AC0E889F989808185FF15C09FB735
:1003A000F894EE89FF896083E889F98980818370F8
:1003B000806480839FBF81E090E0DF91CF911F91A7
:1003C0000F91FF90EF900895F62E0B8D10E00F5FC8
:1003D0001F4F0F731127E02E8C8D8E110CC00FB69E
:1003E00007FCFACFE889F989808185FFF5CFCE0136
:1003F0000E949B01F1CFEB8DEC0FFD2FF11DE35A15
:10040000FF4FF0829FB7F8940B8FEA89FB898081B8
:100410008062CFCFCF93DF93EC01888D8823B9F032
:10042000AA89BB89E889F9898C9185FD03C08081FF
:1004300086FD0DC00FB607FCF7CF8C9185FFF2CF7C
:10044000808185FFEDCFCE010E949B01E9CFDF9136
:10045000CF91089580E090E0892B29F00E949101CE
:1004600081110E94000080E090E0892B49F080E03B
:1004700090E0892B29F00E94000081110E94000069
:1004800080E090E0892B49F080E090E0892B29F012
:100490000E94000081110E94000080E090E0892B02
:1004A00049F080E090E0892B29F00E940000811142
:1004B0000C9400000895AF92BF92CF92DF92EF921A
:1004C000FF920F931F93CF93DF936C017B018B01FE
:1004D000040F151FEB015E01AE18BF08C017D1074E
:1004E00059F06991D601ED91FC910190F081E02DD8
:1004F000C6011995892B79F7C501DF91CF911F911D
:100500000F91FF90EF90DF90CF90BF90AF90089544
:1005100042E050E064E172E08BE292E00C945B0216
:100520001F920F920FB60F9211242F933F938F9328
:100530009F93AF93BF938091270290912802A0913F
:100540002902B0912A023091260223E0230F2D3791
:1005500058F50196A11DB11D209326028093270214
:1005600090932802A0932902B0932A02809122023C
:1005700090912302A0912402B09125020196A11D21
:10058000B11D8093220290932302A0932402B09382
:100590002502BF91AF919F918F913F912F910F9025
:1005A0000FBE0F901F90189526E8230F0296A11DED
:1005B000B11DD2CF1F920F920FB60F9211240BB61E
:1005C0000F922F933F934F935F936F937F938F93EC
:1005D0009F93AF93BF93EF93FF938BE292E00E94C0
:1005E0009B01FF91EF91BF91AF919F918F917F916F
:1005F0006F915F914F913F912F910F900BBE0F9094
:100600000FBE0F901F9018951F920F920FB60F926A
:1006100011240BB60F922F938F939F93EF93FF9319
:10062000E0913B02F0913C028081E0914102F09127
:10063000420282FD1DC09081809144028F5F8F73C2
:1006400020914502821741F0E0914402F0E0E55D1F
:10065000FD4F958F80934402FF91EF919F918F9171
:100660002F910F900BBE0F900FBE0F901F901895FB
:100670008081F2CFEBE2F2E01382128288EE93E007
:10068000A0E0B0E084839583A683B78386E092E000
:100690009183808385EC90E09587848784EC90E05B
:1006A0009787868780EC90E0918B808B81EC90E03F
:1006B000938B828B82EC90E0958B848B86EC90E020
:1006C000978B868B118E128E138E148E08957894CC
:1006D00084B5826084BD84B5816084BD85B5826047
:1006E00085BD85B5816085BD80916E0081608093F8
:1006F0006E00109281008091810082608093810061
:100700008091810081608093810080918000816070
:10071000809380008091B10084608093B1008091CB
:10072000B00081608093B0008091910082608093DE
:100730009100809191008160809391008091900060
:100740008160809390008091A10082608093A100DD
:100750008091A10081608093A1008091A0008160C0
:100760008093A0008091210182608093210180917B
:10077000210181608093210180912001816080931B
:10078000200180917A00846080937A0080917A00C1
:10079000826080937A0080917A00816080937A00F1
:1007A00080917A00806880937A001092C100E09175
:1007B0003B02F0913C0282E08083E0913702F091AD
:1007C00038021082E0913902F0913A028FEC808376
:1007D00010924302E0913F02F091400286E0808354
:1007E000E0913D02F0913E02808180618083E09142
:1007F0003D02F0913E02808188608083E0913D025D
:10080000F0913E02808180688083E0913D02F0910A
:100810003E0280818F7D80838FEF81B99FE094B904
:1008200087B99FE89AB998E39DB997E293BB98E09E
:10083000909301011092040180930A0112B880EF95
:1008400085B918B81BB81EB814BA83E780930201A3
:1008500083E08093050110920B018AE0D82EC4E654
:10086000D0E002E010E0EE24E394F12C8BE292E081
:100870000E948501892B19F18BE292E00E946301AD
:10088000C82E682F8BE292E00E94BD010E94880270
:1008900080ED8C0D8A3098F4809120029091210295
:1008A000D89E9001D99E300D11248C2DCC0C990B23
:1008B000C097820F931F9093210280932002209172
:1008C000200230912102C901BE010E943D064CE97F
:1008D0004603F001479FF00D1124E20FF31F613032
:1008E000710509F0D1C03297E433F10508F05FC01B
:1008F0008827E258FB4F8F4F0C945106B204BA047C
:10090000BD04C104C404D704D704D704D704D70452
:10091000D704D704D704D704D704D7043A06DA0497
:10092000DE04E104E404E804EB04EE04F104F4045E
:10093000F704BA05BD05FA04FE0401050405070520
:100940000A050D05D505100513051605E105190560
:100950001F05230527052B052F05330537053B0507
:100960003E0541058EB1805F8EB910922102109232
:1009700020021DC08EB1805EF7CF84B3805E84BB41
:10098000F4CF8EB1885FF0CF80910201885F8093B1
:100990000201109221021092200248E050E067E12B
:1009A00072E08BE292E00E945B020E9488020E9449
:1009B0002A025CCF8BB18C5F8BB9D7CF8BB18E5FA6
:1009C000FBCF8BB18F5FF8CF82B18F5F82B9CDCF74
:1009D00082B18E5FFBCF82B18C5FF8CF82B1885F2E
:1009E000F5CF82B1805FF2CF82B1805EEFCF82B16E
:1009F000805CECCF88B1805C88B9B7CF88B1805E6D
:100A0000FBCF88B1805FF8CF88B1885FF5CF88B120
:100A10008C5FF2CF88B18E5FEFCF88B18F5FECCF64
:100A200084B38C5FACCF84B38E5FA9CF84B38F5F68
:100A3000A6CF80910B01805C80930B0196CF8091B3
:100A40000B01805EF9CF80910B01805FF5CF809123
:100A50000B01885FF1CF80910B018C5FEDCF80910E
:100A60000B018E5FE9CF80910B018F5FE5CF85B1E0
:100A7000885F85B97ACF85B18C5FFBCF85B18E5FFA
:100A8000F8CF85B18F5FF5CF6230710509F0C5C031
:100A90003297E433F10508F08ACF8827ED5AFA4FF0
:100AA0008F4F0C94510687058A058D059005930597
:100AB000D704D704D704D704D704D704D704D7045E
:100AC000D704D704D70499059C059F05A205A50561
:100AD000A805AB05AE05B105B405B705BA05BD055A
:100AE000C005C305C605C905CC05CF05D205D5058A
:100AF000D805DB05DE05E105E505E905ED05F105B0
:100B0000F505F905FD050106040607060A068EB17E
:100B100080512ACF8EB1805227CF84B380522FCFFD
:100B20008EB1885021CF80910201885080930201BC
:100B30001CCF8BB1885040CF8BB184503DCF8BB14F
:100B400082503ACF8BB1815037CF82B181503ECFA6
:100B500082B182503BCF82B1845038CF82B188506D
:100B600035CF82B1805132CF82B180522FCF82B146
:100B700080542CCF82B1805829CF88B180583CCF87
:100B800088B1805439CF88B1805236CF88B1805136
:100B900033CF88B1885030CF88B184502DCF88B101
:100BA00082502ACF88B1815027CF8BB1805804CF93
:100BB00084B38450E4CE84B38250E1CE84B38150B8
:100BC000DECE80910B01805837CF80910B0180548D
:100BD00033CF80910B0180522FCF80910B01805138
:100BE0002BCF80910B01885027CF80910B0184502F
:100BF00023CF80910B0182501FCF80910B01815038
:100C00001BCF85B1885035CF85B1845032CF85B1A7
:100C100082502FCF85B181502CCF6330710509F000
:100C2000C6CEE330F10559F0E231F10569F03297B3
:100C300009F0BDCEF0920102E092000296CE109330
:100C4000010200930002B3CE809100029091010254
:100C50000197029708F489CE8EB1805E8EB984B375
:100C6000805E84BB8EB1885F8EB980910201885FFF
:100C7000809302018BB1885F9FCE97FB072E16F4FD
:100C8000009407D077FD09D00E94590607FC05D0D3
:100C90003EF4909581959F4F0895709561957F4F93
:100CA0000895EE0FFF1F881F8BBF0790F691E02D70
:100CB0001994AA1BBB1B51E107C0AA1FBB1FA61793
:100CC000B70710F0A61BB70B881F991F5A95A9F7F5
:0E0CD00080959095BC01CD010895F894FFCF5A
:100CDE00010000000000BD015B0254010A02850103
:100CEE00630177010D0A00526563656976656400DC
:00000001FF
