:100000000C9483000C94B4000C94B4000C94B400D1
:100010000C94B4000C94B4000C94B4000C94B40090
:100020000C94B4000C94B4000C94B4000C94B40080
:100030000C94B4000C94B4000C94B4000C94B40070
:100040000C94B4000C94B4000C94B4000C94B40060
:100050000C94B4000C94B4000C94B4000C947C0286
:100060000C94B4000C94F0020C94C6020C94B400EE
:100070000C94B4000C94B4000C94B4000C94B40030
:100080000C94B4000C94B4000C94B4000C94B40020
:100090000C94B4000C94B4000C94B4000C94B40010
:1000A0000C94B4000C94B4000C94B4000C94B40000
:1000B0000C94B4000C94B4000C94B4000C94B400F0
:1000C0000C94B4000C94B4000C94B4000C94B400E0
:1000D0000C94B4000C94B4000C94B4000C94B400D0
:1000E0000C94B4000C94C5000C94E7000C94D90057
:1000F0000C94BD010C946C010C94B6000C94260376
:100100000C941F01260311241FBECFEFD1E2DEBFE6
:10011000CDBF00E00CBF12E0A0E0B2E0ECE7F9E0F8
:1001200000E00BBF02C007900D92A433B107D9F7CE
:1001300022E0A4E3B2E001C01D92AC3DB207E1F7BA
:1001400010E0C3E8D0E000E006C021970109802F4D
:10015000FE010E94B404C238D10780E00807A9F765
:100160000E9453030C94BC040C940000FC01538DBA
:10017000448D252F30E0842F90E0821B930B541781
:1001800010F0CF96089501970895FC01918D828D0E
:10019000981761F0A28DAE0FBF2FB11D5D968C91A7
:1001A000928D9F5F9F73928F90E008958FEF9FEFE6
:1001B0000895FC01918D828D981731F0828DE80FA2
:1001C000F11D858D90E008958FEF9FEF0895FC015C
:1001D000918D228D892F90E0805C9F4F821B910929
:1001E0008F73992708958FE392E00E94E70021E042
:1001F000892B09F420E0822F0895FC01A48DA80F1B
:10020000B92FB11DA35ABF4F2C91848D90E0019658
:100210008F739927848FA689B7892C93A089B18978
:100220008C91837080648C93938D848D981306C019
:100230000288F389E02D80818F7D80830895EF927D
:10024000FF920F931F93CF93DF93EC0181E0888F90
:100250009B8D8C8D98131AC0E889F989808185FF60
:1002600015C09FB7F894EE89FF896083E889F98902
:1002700080818370806480839FBF81E090E0DF9104
:10028000CF911F910F91FF90EF900895F62E0B8D57
:1002900010E00F5F1F4F0F731127E02E8C8D8E1112
:1002A0000CC00FB607FCFACFE889F989808185FF79
:1002B000F5CFCE010E94FD00F1CFEB8DEC0FFD2FAD
:1002C000F11DE35AFF4FF0829FB7F8940B8FEA8934
:1002D000FB8980818062CFCFCF93DF93EC01888D43
:1002E0008823B9F0AA89BB89E889F9898C9185FDB1
:1002F00003C0808186FD0DC00FB607FCF7CF8C913F
:1003000085FFF2CF808185FFEDCFCE010E94FD00F9
:10031000E9CFDF91CF91089580E090E0892B29F01B
:100320000E94F30081110E94000080E090E0892B80
:1003300049F080E090E0892B29F00E9400008111B3
:100340000E94000080E090E0892B49F080E090E07E
:10035000892B29F00E94000081110E94000080E09A
:1003600090E0892B49F080E090E0892B29F00E94F1
:10037000000081110C9400000895AF92BF92CF92BB
:10038000DF92EF92FF920F931F93CF93DF936C0155
:100390007B018B01040F151FEB015E01AE18BF0836
:1003A000C017D10759F06991D601ED91FC910190E8
:1003B000F081E02DC6011995892B79F7C501DF91F0
:1003C000CF911F910F91FF90EF90DF90CF90BF9052
:1003D000AF900895FC0101900020E9F73197AF013B
:1003E000481B590BBC018FE392E00C94BD018F9226
:1003F0009F92AF92BF92CF92DF92EF92FF920F93B4
:100400001F93CF93DF93CDB7DEB7A1970FB6F894C4
:10041000DEBF0FBECDBF6C01990FEE08FF08F7FEDF
:1004200047C06DE28FE392E00E941F018C012227FA
:100430003327A9012C193D094E095F0919A2CE01E4
:1004400081967C019AE0892E912CA12CB12CCA01B5
:10045000B901A50194010E949204605DF7016293C5
:100460007F01211531054105510589F790E080E0B4
:10047000309719F0CF010E94EA01080F191F82E19D
:1004800092E00E94EA01800F911FA1960FB6F894A6
:10049000DEBF0FBECDBFDF91CF911F910F91FF90B7
:1004A000EF90DF90CF90BF90AF909F908F90089586
:1004B000A701960119A28E010F5D1F4F8AE0C82E79
:1004C000D12CE12CF12CCA01B901A70196010E949F
:1004D0009204605DF80162938F0121153105410599
:1004E000510589F7309729F0CF010E94EA018C016C
:1004F000C6CF10E000E0C3CF1F920F920FB60F924D
:1005000011242F933F938F939F93AF93BF93809129
:100510003B0290913C02A0913D02B0913E0230918D
:100520003A0223E0230F2D3758F50196A11DB11D86
:1005300020933A0280933B0290933C02A0933D02A9
:10054000B0933E028091360290913702A09138021A
:10055000B09139020196A11DB11D8093360290938E
:100560003702A0933802B0933902BF91AF919F91A7
:100570008F913F912F910F900FBE0F901F90189564
:1005800026E8230F0296A11DB11DD2CF1F920F9214
:100590000FB60F9211240BB60F922F933F934F93E8
:1005A0005F936F937F938F939F93AF93BF93EF93DB
:1005B000FF938FE392E00E94FD00FF91EF91BF91C6
:1005C000AF919F918F917F916F915F914F913F91EB
:1005D0002F910F900BBE0F900FBE0F901F9018958C
:1005E0001F920F920FB60F9211240BB60F922F93FA
:1005F0008F939F93EF93FF93E0914F02F0915002FE
:100600008081E0915502F091560282FD1DC09081DB
:10061000809158028F5F8F7320915902821741F0A9
:10062000E0915802F0E0E15CFD4F958F8093580215
:10063000FF91EF919F918F912F910F900BBE0F9093
:100640000FBE0F901F9018958081F2CFEFE3F2E07C
:100650001382128288EE93E0A0E0B0E08483958359
:10066000A683B78384E092E09183808385EC90E059
:100670009587848784EC90E09787868780EC90E06C
:10068000918B808B81EC90E0938B828B82EC90E05D
:10069000958B848B86EC90E0978B868B118E128ED7
:1006A000138E148E0895789484B5826084BD84B5C9
:1006B000816084BD85B5826085BD85B5816085BD5D
:1006C00080916E00816080936E0010928100809115
:1006D000810082608093810080918100816080939D
:1006E0008100809180008160809380008091B100C2
:1006F00084608093B1008091B00081608093B000ED
:10070000809191008260809391008091910081603E
:1007100080939100809190008160809390008091FF
:10072000A10082608093A1008091A10081608093EC
:10073000A1008091A00081608093A00080912101A0
:100740008260809321018091210181608093210149
:100750008091200181608093200180917A008460E3
:1007600080937A0080917A00826080937A008091F1
:100770007A00816080937A0080917A00806880930B
:100780007A001092C100E0914F02F091500282E095
:100790008083E0914B02F0914C021082E0914D0277
:1007A000F0914E028FEC808310925702E091530239
:1007B000F091540286E08083E0915102F091520260
:1007C000808180618083E0915102F09152028081AA
:1007D00088608083E0915102F091520280818068AC
:1007E0008083E0915102F091520280818F7D80835D
:1007F0008FEF8093010110920201DAE0C0E110E274
:100800008FE392E00E94E700892B31F18FE392E0C1
:100810000E94C50090ED980F9A3008F03FC04091BB
:10082000340250913502D49F9001D59F300D112490
:10083000082E000C990BC097820F931F90933502DE
:100840008093340285E192E00E94EA0180913402B3
:10085000909135020E94F701809134029091350207
:10086000803D9105D9F13CF58E36910599F180379F
:10087000910571F18C36910571F41093020188E2B3
:1008800092E00E94EA0182E192E00E94EA01109265
:100890003502109234020E948C01B2CF8A3091F658
:1008A00085E192E00E94EA01809134029091350244
:1008B0000E94F701C7CF843D9105B1F0883321E054
:1008C0009207A9F0823D910531F785B1845004C0AB
:1008D000C5B9DDCF85B18C5F85B9D9CF80910201D3
:1008E000805280930201D3CF85B18051F5CF86E04D
:1008F00090E0C5B93FEF43ED20E331504040204048
:10090000E1F700C0000025B1205125B93FEF43EDCC
:1009100020E3315040402040E1F700C00000019743
:1009200041F7B5CFA1E21A2EAA1BBB1BFD010DC0DA
:10093000AA1FBB1FEE1FFF1FA217B307E407F5078F
:1009400020F0A21BB30BE40BF50B661F771F881F6B
:10095000991F1A9469F760957095809590959B0101
:10096000AC01BD01CF010895EE0FFF1F881F8BBFA3
:0C0970000790F691E02D1994F894FFCF49
:10097C00000000001F01BD01B6006C01E700C500BE
:10098C00D9000D0A00436F6D6D616E642072656352
:10099C0065697665643A20007265636F676E697A83
:0409AC00656400007E
:00000001FF
